:1000000012C0189518951895189518951895189563
:100010001895189518951895189518951895189578
:100020001895189518958FE58DBFC8E3E0E24E2E20
:1000300084E08EBFD4E0F4E05F2EA89584B7082E4C
:10004000877F84BF88E1992781BD91BDEEEFF3E002
:10005000A0E6B0E088278D933197E9F783E389B96B
:1000600080E080BD88E18AB966248FEF87BB8A9AD9
:100070008B9A8C9A8D988E988F9886E886B980E4B2
:1000800087B9379A88EE93E0AEE6B0E08D939C9303
:1000900088E893E100D6DBD5ABE8B0E08C93009123
:1000A0008B00013009F005C0D6D5ACE8B0E08C93E8
:1000B00001C006C000918C00003309F001C0E5C208
:1000C00087E08093880000918800083010F009F0E4
:1000D00058C0A8E8B0E0AD90BB24AFE7B0E0AA0DEF
:1000E000BB1D0C91013009F045C087E68093A90043
:1000F000A9E8B0E0E8E8F0E01ED6A9E8B0E078D6DC
:10010000082F023008F017C083E0D9D5E9E8F0E005
:10011000A881B98159D6A9E8B0E0EEE2FEE0D5D5D4
:10012000E881F981A9E8B0E076D54ED683E0481A97
:1001300080E0580A2296A0E7B0E0E0E3FEE0C5D5F3
:10014000E9E8F0E0A0E7B0E066D53ED6A0E7B0E091
:1001500062D5E8E3FEE0B9D5A0E7B0E086D5A0E738
:10016000B0E0C9D5082FA8E0B4E0E0E1F0E0E3D5C5
:100170007AD581D5A8E8B0E08C918F5F8C9308F494
:10018000A2CF00918000013009F03FC007B1007F8D
:10019000006007B99FD5A0E6B0E08D939C93A0E6E0
:1001A000B0E00D911C91073E53E0150710F009F0E7
:1001B00001C006C087EE93E0A0E6B0E08D939C936B
:1001C00087E68093A900A0E7B0E0ECE3FEE07DD5F0
:1001D000A0E7B0E020D5E0E6F0E0A1D5A0E7B0E0F0
:1001E0001AD5E6E4FEE071D5A0E7B0E03ED5A0E781
:1001F000B0E081D5082FA8E0B4E0E0E1F0E09BD5C5
:1002000032D539D580E080938000009181000130A3
:1002100009F03FC007B1007F016007B95BD5A2E6D6
:10022000B0E08D939C93A2E6B0E00D911C91073E47
:1002300053E0150710F009F001C006C087EE93E007
:10024000A2E6B0E08D939C9387E68093A900A0E797
:10025000B0E0E8E4FEE039D5A0E7B0E0DCD4E2E6C7
:10026000F0E05DD5A0E7B0E0D6D4E6E4FEE02DD521
:10027000A0E7B0E0FAD4A0E7B0E03DD5082FA8E0B1
:10028000B4E0E0E1F0E057D5EED4F5D480E080931F
:10029000810000918200013009F03FC007B1007F6A
:1002A000026007B917D5A4E6B0E08D939C93A4E64D
:1002B000B0E00D911C91073E53E0150710F009F0D6
:1002C00001C006C087EE93E0A4E6B0E08D939C9356
:1002D00087E68093A900A0E7B0E0E2E5FEE0F5D470
:1002E000A0E7B0E098D4E4E6F0E019D5A0E7B0E0EC
:1002F00092D4E6E4FEE0E9D4A0E7B0E0B6D4A0E70B
:10030000B0E0F9D4082FA8E0B4E0E0E1F0E013D5C4
:10031000AAD4B1D480E080938200009183000130A0
:1003200009F03FC007B1007F036007B9D3D4A6E648
:10033000B0E08D939C93A6E6B0E00D911C91073E32
:1003400053E0150710F009F001C006C087EE93E0F6
:10035000A6E6B0E08D939C9387E68093A900A0E782
:10036000B0E0ECE5FEE0B1D4A0E7B0E054D4E6E6BE
:10037000F0E0D5D4A0E7B0E04ED4E6E4FEE0A5D4AA
:10038000A0E7B0E072D4A0E7B0E0B5D4082FA8E0B1
:10039000B4E0E0E1F0E0CFD466D46DD480E08093A7
:1003A000830000918400013009F03FC007B1007F55
:1003B000046007B98FD4A8E6B0E08D939C93A8E6BB
:1003C000B0E00D911C91073E53E0150710F009F0C5
:1003D00001C006C087EE93E0A8E6B0E08D939C9341
:1003E00087E68093A900A0E7B0E0E6E6FEE06DD4E2
:1003F000A0E7B0E010D4E8E6F0E091D4A0E7B0E0E8
:100400000AD4E6E4FEE061D4A0E7B0E02ED4A0E791
:10041000B0E071D4082FA8E0B4E0E0E1F0E08BD4C4
:1004200022D429D480E0809384000091850001309B
:1004300009F03FC007B1007F056007B94BD4AAE6B9
:10044000B0E08D939C93AAE6B0E00D911C91073E1D
:1004500053E0150710F009F001C006C087EE93E0E5
:10046000AAE6B0E08D939C9387E68093A900A0E76D
:10047000B0E0E0E7FEE029D4A0E7B0E0CCD3EAE6C4
:10048000F0E04DD4A0E7B0E0C6D3E6E4FEE01DD432
:10049000A0E7B0E0EAD3A0E7B0E02DD4082FA8E0B1
:1004A000B4E0E0E1F0E047D4DED3E5D380E0809330
:1004B000850085991EC000918600003009F016C0A5
:1004C00087E68093A900A0E7B0E0EAE7FEE0FDD36D
:1004D000A0E7B0E0CAD3A0E7B0E00DD4082FA8E0B1
:1004E000B4E0E0E1F0E027D4BED3C5D38AEF809337
:1004F000860086991EC000918700003009F016C062
:1005000087E68093A900A0E7B0E0E6E8FEE0DDD34F
:10051000A0E7B0E0AAD3A0E7B0E0EDD3082FA8E0B1
:10052000B4E0E0E1F0E007D49ED3A5D38AEF809356
:10053000870087E08093880000918800083010F0E1
:1005400009F02AC0A8E8B0E0AD90BB24AFE7B0E066
:10055000AA0DBB1D0C91003080E010F009F081E085
:100560008F930091A800003081E009F080E09F9116
:100570008923882309F409C0A8E8B0E0AD90BB2422
:10058000AFE7B0E0AA0DBB1D3BD3A8E8B0E08C916B
:100590008F5F8C9308F4D0CF0091A900003010F049
:1005A00009F001C005C08091A90081508093A90085
:1005B0000091A900043609F001C0949A0091A900A5
:1005C000003009F001C09498AEE6B0E00D911C91A6
:1005D000003050E0150714F009F001C003C0AEE68A
:1005E000B0E012D3AEE6B0E00D911C91003050E0C7
:1005F000150709F01CC087E68093A900A0E7B0E0CA
:10060000E2E9FEE062D3A0E7B0E02FD3A0E7B0E0DC
:1006100072D3082FA8E0B4E0E0E1F0E08CD323D35C
:100620002AD380E29EE4AEE6B0E08D939C93ACE6E4
:10063000B0E00D911C91003050E0150714F009F066
:1006400001C003C0ACE6B0E0DFD2ACE6B0E00D9193
:100650001C91043F51E0150709F001C0939AACE6E4
:10066000B0E00D911C91003050E0150709F007C073
:10067000939884E398E0ACE6B0E08D939C9381E09E
:1006800090E009D308CDF894FFCFCED3ADE8B0E029
:10069000EFE0CAD2C6D3EDE8F0E003E0ADE9B0E0A8
:1006A0009FD385E0EDE8F0E001E00A93A1EAB0E035
:1006B00090D387E0EDE8F0E002E00A93A3EAB0E02F
:1006C00088D38AE0EDE8F0E001E00A93A6EAB0E022
:1006D00080D3ADE9B0E0EEE9FEE090D309F08DC241
:1006E000A1EAB0E0E2EAFEE089D309F00EC287E6B3
:1006F0008093A900A3EAB0E0E4EAFEE07FD309F02A
:1007000035C0A6EAB0E0E8EAFEE078D309F001C01F
:10071000C09AA6EAB0E0EEE2FEE070D309F001C0B4
:10072000C098A0E7B0E0EAEAFEE0CFD2A8E3B0E0EC
:100730008C9180FBA0E7B0E06ED2D9D28D93882750
:100740008C93A0E7B0E067D2E6E4FEE0BED2A0E77B
:10075000B0E08BD2A0E7B0E0CED2082FA8E0B4E0A2
:10076000E0E1F0E0E8D27FD286D2CFC1E4EBFEE058
:1007700045D309F035C0A6EAB0E0E8EAFEE03ED392
:1007800009F001C0C19AA6EAB0E0EEE2FEE036D37D
:1007900009F001C0C198A0E7B0E0E8EBFEE095D217
:1007A000A8E3B0E08C9181FBA0E7B0E034D29FD207
:1007B0008D9388278C93A0E7B0E02DD2E6E4FEE08D
:1007C00084D2A0E7B0E051D2A0E7B0E094D2082FE5
:1007D000A8E0B4E0E0E1F0E0AED245D24CD295C161
:1007E000E2ECFEE00BD309F035C0A6EAB0E0E8EA9F
:1007F000FEE004D309F001C0C29AA6EAB0E0EEE23E
:10080000FEE0FCD209F001C0C298A0E7B0E0E6EC3F
:10081000FEE05BD2A8E3B0E08C9182FBA0E7B0E001
:10082000FAD165D28D9388278C93A0E7B0E0F3D1FD
:10083000E6E4FEE04AD2A0E7B0E017D2A0E7B0E0DD
:100840005AD2082FA8E0B4E0E0E1F0E074D20BD275
:1008500012D25BC1E0EDFEE0D1D209F035C0A6EACC
:10086000B0E0E8EAFEE0CAD209F001C0C39AA6EA05
:10087000B0E0EEE2FEE0C2D209F001C0C398A0E70A
:10088000B0E0E4EDFEE021D2A8E3B0E08C9183FB80
:10089000A0E7B0E0C0D12BD28D9388278C93A0E73E
:1008A000B0E0B9D1E6E4FEE010D2A0E7B0E0DDD1DF
:1008B000A0E7B0E020D2082FA8E0B4E0E0E1F0E04B
:1008C0003AD2D1D1D8D121C1EEEDFEE097D209F0D4
:1008D00035C0A6EAB0E0E8EAFEE090D209F001C037
:1008E000C49AA6EAB0E0EEE2FEE088D209F001C0C8
:1008F000C498A0E7B0E0E2EEFEE0E7D1A8E3B0E004
:100900008C9184FBA0E7B0E086D1F1D18D9388274C
:100910008C93A0E7B0E07FD1E6E4FEE0D6D1A0E77B
:10092000B0E0A3D1A0E7B0E0E6D1082FA8E0B4E0A2
:10093000E0E1F0E000D297D19ED1E7C0ECEEFEE01E
:100940005DD209F035C0A6EAB0E0E8EAFEE056D292
:1009500009F001C0C59AA6EAB0E0EEE2FEE04ED290
:1009600009F001C0C598A0E7B0E0E0EFFEE0ADD12E
:10097000A8E3B0E08C9185FBA0E7B0E04CD1B7D103
:100980008D9388278C93A0E7B0E045D1E6E4FEE0A4
:100990009CD1A0E7B0E069D1A0E7B0E0ACD1082FCE
:1009A000A8E0B4E0E0E1F0E0C6D15DD164D1ADC033
:1009B000EAEFFEE023D209F035C0A6EAB0E0E8EAAB
:1009C000FEE01CD209F001C0C69AA6EAB0E0EEE251
:1009D000FEE014D209F001C0C698A0E7B0E0EEEF47
:1009E000FEE073D1A8E3B0E08C9186FBA0E7B0E015
:1009F00012D17DD18D9388278C93A0E7B0E00BD1E5
:100A0000E6E4FEE062D1A0E7B0E02FD1A0E7B0E0DD
:100A100072D1082FA8E0B4E0E0E1F0E08CD123D15E
:100A20002AD173C0E8E0FFE0E9D109F035C0A6EAB9
:100A3000B0E0E8EAFEE0E2D109F001C0C79AA6EA18
:100A4000B0E0EEE2FEE0DAD109F001C0C798A0E71D
:100A5000B0E0ECE0FFE039D1A8E3B0E08C9187FB97
:100A6000A0E7B0E0D8D043D18D9388278C93A0E73E
:100A7000B0E0D1D0E6E4FEE028D1A0E7B0E0F5D0C8
:100A8000A0E7B0E038D1082FA8E0B4E0E0E1F0E062
:100A900052D1E9D0F0D039C0E6E1FFE0AFD109F0A2
:100AA00034C0A6EAB0E0E8EAFEE0A8D109F001C04F
:100AB000929AA6EAB0E0EEE2FEE0A0D109F001C011
:100AC0009298A0E7B0E0EAE1FFE0FFD0A2E3B0E057
:100AD0008C9182FBA0E7B0E09ED009D18D9388274E
:100AE0008C93A0E7B0E097D0E6E4FEE0EED0A0E77C
:100AF000B0E0BBD0A0E7B0E0FED0082FA8E0B4E0A3
:100B0000E0E1F0E018D1AFD0B6D0A1EAB0E0E4E285
:100B1000FFE074D109F071C0A3EAB0E0E4EAFEE0BE
:100B20006DD109F009C000918000003009F003C0C8
:100B300081E08093800061C0E4EBFEE05FD109F0CA
:100B400009C000918100003009F003C081E080936A
:100B5000810053C0E2ECFEE051D109F009C00091E0
:100B60008200003009F003C081E08093820045C01C
:100B7000E0EDFEE043D109F009C0009183000030B0
:100B800009F003C081E08093830037C0EEEDFEE002
:100B900035D109F009C000918400003009F003C08C
:100BA00081E08093840029C0ECEEFEE027D109F0BB
:100BB00009C000918500003009F003C081E08093F6
:100BC00085001BC0EAEFFEE019D109F009C00091D1
:100BD0008600003009F003C082E0809386000DC0DB
:100BE000E8E0FFE00BD109F008C000918700003079
:100BF00009F003C082E08093870062CAF894FFCFB7
:100C00008C9181508C930895ED91FC91E150F040CE
:100C1000FC93EE9308958F938D918823E9F71197B4
:100C20008F910895A8E0B4E01AD08D3039F0EE230A
:100C3000D9F38D93EA9563FE21D0F6CF63FC04C00F
:100C40008DE01CD08AE01AD088278C93089581E02B
:100C50005F9B8827089588275F9B089500C05F9B4E
:100C6000FECF8CB10895A8E0B4E08D91882311F0F7
:100C700005D0FBCF08958DE001D08AE05D9BFECFCB
:100C80008CB908953197F1F70895689462F8089542
:100C9000E89462F80895EF93FF93EE27E82BE92B91
:100CA00031F0E0EDF7E03197F1F70197D1F7FF91DF
:100CB000EF91089501911191219130810895992723
:100CC0005A924A92480E591E08950DD00D92002056
:100CD000E1F70895369A3699FECF369A3699FECFC7
:100CE00084B195B10895C89531960020089580E3A8
:100CF0000EF48395089588279D91890F9923E1F734
:100D00000895000F111F221F331F0895009510959D
:100D1000209530950F5F1F4F2F4F3F4F0895019142
:100D200010810BC0C7DF0BC00191108117FF05C0F8
:100D30003FEF2FEF04C0008111272227332737FF11
:100D400003C0E4DF8DE28D93CF92DF92EF92AA246D
:100D5000BB24CC24DD24EE2440E2EAE0FF2755E06A
:100D600093E38081890F87FD9F7083FD907F891BAE
:100D700081935A95A9F7C5DFAA1CBB1CCC1CDD1CAE
:100D8000EE1C4A9551F7E894EFE0FF2782910CD0D2
:100D9000EB30E0F71EF068948A2D0AD088278D93F7
:100DA000EF90DF90CF900895982F829501D0892FF2
:100DB0008F70805D26F0803309F4089568948D93D8
:100DC000089588278D93089581918D938823E1F765
:100DD000089509919191992351F08A95D9F7319706
:100DE000002329F081918D930A958823C9F7E9CFD3
:100DF0008FEF83959D919923E1F70895689401C041
:100E0000E894AF93BF938D9116F0919102C06BDF80
:100E1000902D891718F011F48823A9F7BF91AF918D
:100E20000895E89463F80895689463F8089530008D
:100E30003030353A693A00003A303A003030353ACD
:100E4000693A30313A003A003030353A693A303256
:100E50003A003030353A693A30333A003030353A7A
:100E6000693A30343A003030353A693A30353A0030
:100E70003030353A693A30363A003030353A693AEE
:100E800030373A313A003030353A693A30383A3111
:100E90003A003030353A733A30313A313A00303036
:100EA00035006F003031000031003030353A6F3A94
:100EB00030313A00303200003030353A6F3A30325B
:100EC0003A00303300003030353A6F3A30333A0070
:100ED000303400003030353A6F3A30343A00303533
:100EE00000003030353A6F3A30353A003036000085
:100EF0003030353A6F3A30363A0030370000303013
:100F0000353A6F3A30373A00303800003030353AF1
:100F10006F3A30383A00303900003030353A6F3AA5
:060F200030393A006900BF
:00000001FF
