:1000000012C0189518951895189518951895189563
:100010001895189518951895189518951895189578
:100020001895189518958FE58DBFC8E3E0E24E2E20
:1000300084E08EBFD4E0F4E05F2EA89584B7082E4C
:10004000877F84BF88E1992781BD91BDEEEFF3E002
:10005000A0E6B0E088278D933197E9F783E389B96B
:1000600080E080BD88E18AB966248FEF87BB8A9AD9
:100070008B9A8C9A8D988E988F9886E886B980E4B2
:1000800087B9379A88EE93E0AEE6B0E08D939C9303
:1000900088E893E1F0D5CBD5ABE8B0E08C93009144
:1000A0008B00013009F005C0C6D5ACE8B0E08C93F8
:1000B00001C006C000918C00003309F001C0E3C309
:1000C00087E08093880000918800083010F009F0E4
:1000D0004EC0A8E8B0E0AD90BB24AFE7B0E0AA0DF9
:1000E000BB1D0C91013009F03BC087E68093A9004D
:1000F000A9E8B0E0E8E8F0E008D6A9E8B0E062D608
:10010000082F023008F017C083E0C9D5E9E8F0E015
:10011000A881B98143D6A9E8B0E0E2E0FEE0C5D508
:10012000E881F981A9E8B0E066D538D683E0481ABD
:1001300080E0580A2296A0E7B0E0E4E0FEE0B5D502
:10014000E9E8F0E0A0E7B0E056D528D6A0E7B0E0B7
:1001500052D5ECE0FEE0A9D5A0E7B0E076D57BD59E
:10016000A8E8B0E08C918F5F8C9308F4ACCF00913D
:100170008000013009F070C007B1007F006007B94E
:1001800099D5A0E6B0E08D939C93A0E6B0E00D91E8
:100190001C91073E53E0150710F009F001C006C09E
:1001A00087EE93E0A0E6B0E08D939C9387E6809382
:1001B000A900AAEAB0E0E0E6F0E09BD5AAEAB0E048
:1001C00001D6082F023008F017C085E068D5EAEAAA
:1001D000F0E0A881B981E2D5AAEAB0E0E2E0FEE071
:1001E00064D5E881F981AAEAB0E005D5D7D585E0E4
:1001F000481A80E0580A2296AAEAB0E0E3D5082F10
:10020000033008F017C085E04AD5EAEAF0E0A8819B
:10021000B981C4D5AAEAB0E0E2E0FEE046D5E881C3
:10022000F981AAEAB0E0E7D4B9D585E0481A80E0C0
:10023000580A2296A0E7B0E0E2E1FEE036D5EAEA0D
:10024000F0E0A0E7B0E0D7D4A9D5A0E7B0E0FDD4B6
:1002500002D580E08093800000918100013009F098
:1002600070C007B1007F016007B924D5A2E6B0E0F5
:100270008D939C93A2E6B0E00D911C91073E53E054
:10028000150710F009F001C006C087EE93E0A2E662
:10029000B0E08D939C9387E68093A900AEEAB0E02E
:1002A000E2E6F0E026D5AEEAB0E08CD5082F0230C9
:1002B00008F017C085E0F3D4EEEAF0E0A881B98138
:1002C0006DD5AEEAB0E0E2E0FEE0EFD4E881F9817E
:1002D000AEEAB0E090D462D585E0481A80E0580AD2
:1002E0002296AEEAB0E06ED5082F033008F017C0B2
:1002F00085E0D5D4EEEAF0E0A881B9814FD5AEEA29
:10030000B0E0E2E0FEE0D1D4E881F981AEEAB0E00D
:1003100072D444D585E0481A80E0580A2296A0E7B6
:10032000B0E0ECE1FEE0C1D4EEEAF0E0A0E7B0E03E
:1003300062D434D5A0E7B0E088D48DD480E0809337
:10034000810000918200013009F070C007B1007F88
:10035000026007B9AFD4A4E6B0E08D939C93A4E605
:10036000B0E00D911C91073E53E0150710F009F025
:1003700001C006C087EE93E0A4E6B0E08D939C93A5
:1003800087E68093A900A2EBB0E0E4E6F0E0B1D408
:10039000A2EBB0E017D5082F023008F017C085E0B7
:1003A0007ED4E2EBF0E0A881B981F8D4A2EBB0E012
:1003B000E2E0FEE07AD4E881F981A2EBB0E01BD460
:1003C000EDD485E0481A80E0580A2296A2EBB0E00E
:1003D000F9D4082F033008F017C085E060D4E2EBB1
:1003E000F0E0A881B981DAD4A2EBB0E0E2E0FEE06F
:1003F0005CD4E881F981A2EBB0E0FDD3CFD485E0F5
:10040000481A80E0580A2296A0E7B0E0E6E2FEE053
:100410004CD4E2EBF0E0A0E7B0E0EDD3BFD4A0E72E
:10042000B0E013D418D480E0809382000091830060
:10043000013009F070C007B1007F036007B93AD4FA
:10044000A6E6B0E08D939C93A6E6B0E00D911C91DA
:10045000073E53E0150710F009F001C006C087EE13
:1004600093E0A6E6B0E08D939C9387E68093A90085
:10047000A6EBB0E0E6E6F0E03CD4A6EBB0E0A2D418
:10048000082F023008F017C085E009D4E6EBF0E051
:10049000A881B98183D4A6EBB0E0E2E0FEE005D408
:1004A000E881F981A6EBB0E0A6D378D485E0481ABC
:1004B00080E0580A2296A6EBB0E084D4082F0330DF
:1004C00008F017C085E0EBD3E6EBF0E0A881B98136
:1004D00065D4A6EBB0E0E2E0FEE0E7D3E881F98185
:1004E000A6EBB0E088D35AD485E0481A80E0580AD9
:1004F0002296A0E7B0E0E0E3FEE0D7D3E6EBF0E041
:10050000A0E7B0E078D34AD4A0E7B0E09ED3A3D36D
:1005100080E08093830000918400013009F070C076
:1005200007B1007F046007B9C5D3A8E6B0E08D939A
:100530009C93A8E6B0E00D911C91073E53E015078F
:1005400010F009F001C006C087EE93E0A8E6B0E025
:100550008D939C9387E68093A900AAEBB0E0E8E630
:10056000F0E0C7D3AAEBB0E02DD4082F023008F09A
:1005700017C085E094D3EAEBF0E0A881B9810ED4EE
:10058000AAEBB0E0E2E0FEE090D3E881F981AAEBCB
:10059000B0E031D303D485E0481A80E0580A2296AF
:1005A000AAEBB0E00FD4082F033008F017C085E0A5
:1005B00076D3EAEBF0E0A881B981F0D3AAEBB0E002
:1005C000E2E0FEE072D3E881F981AAEBB0E013D358
:1005D000E5D385E0481A80E0580A2296A0E7B0E00B
:1005E000EAE3FEE062D3EAEBF0E0A0E7B0E003D399
:1005F000D5D3A0E7B0E029D32ED380E08093840048
:1006000000918500013009F070C007B1007F0560DE
:1006100007B950D3AAE6B0E08D939C93AAE6B0E068
:100620000D911C91073E53E0150710F009F001C031
:1006300006C087EE93E0AAE6B0E08D939C9387E630
:100640008093A900AEEBB0E0EAE6F0E052D3AEEB67
:10065000B0E0B8D3082F023008F017C085E01FD3F0
:10066000EEEBF0E0A881B98199D3AEEBB0E0E2E027
:10067000FEE01BD3E881F981AEEBB0E0BCD28ED3B3
:1006800085E0481A80E0580A2296AEEBB0E09AD393
:10069000082F033008F017C085E001D3EEEBF0E03F
:1006A000A881B9817BD3AEEBB0E0E2E0FEE0FDD201
:1006B000E881F981AEEBB0E09ED270D385E0481AB4
:1006C00080E0580A2296A0E7B0E0E4E4FEE0EDD234
:1006D000EEEBF0E0A0E7B0E08ED260D3A0E7B0E0B0
:1006E000B4D2B9D280E080938500859914C000917E
:1006F0008600003009F00CC087E68093A900A0E7CF
:10070000B0E0EEE4FEE0D1D2A0E7B0E09ED2A3D20A
:100710008AEF80938600869914C00091870000308C
:1007200009F00CC087E68093A900A0E7B0E0ECE5F3
:10073000FEE0BBD2A0E7B0E088D28DD28AEF8093F2
:10074000870087E08093880000918800083010F0CF
:1007500009F02AC0A8E8B0E0AD90BB24AFE7B0E054
:10076000AA0DBB1D0C91003080E010F009F081E073
:100770008F930091A800003081E009F080E09F9104
:100780008923882309F409C0A8E8B0E0AD90BB2410
:10079000AFE7B0E0AA0DBB1D23D2A8E8B0E08C9172
:1007A0008F5F8C9308F4D0CF0091A900003010F037
:1007B00009F001C005C08091A90081508093A90073
:1007C0000091A900043609F001C0949A0091A90093
:1007D000003009F001C09498AEE6B0E00D911C9194
:1007E000003050E0150714F009F001C003C0AEE678
:1007F000B0E0FAD1AEE6B0E00D911C91003050E0CF
:10080000150709F012C087E68093A900A0E7B0E0C1
:10081000EAE6FEE04AD2A0E7B0E017D21CD280E2BE
:100820009EE4AEE6B0E08D939C93ACE6B0E00D9113
:100830001C91003050E0150714F009F001C003C00E
:10084000ACE6B0E0D1D1ACE6B0E00D911C91043F34
:1008500051E0150709F001C0939AACE6B0E00D91A4
:100860001C91003050E0150709F007C0939884E30D
:1008700098E0ACE6B0E08D939C9381E090E0FBD1F2
:100880000ACCF894FFCFBAD2ADE8B0E0EFE0BCD12B
:10089000B2D2EDE8F0E003E0ADE9B0E08BD285E064
:1008A000EDE8F0E001E00A93A1EAB0E07CD287E055
:1008B000EDE8F0E002E00A93A3EAB0E074D28AE047
:1008C000EDE8F0E001E00A93A6EAB0E06CD2ADE911
:1008D000B0E0E8E7FEE07CD209F07FC1A1EAB0E039
:1008E000ECE7FEE075D209F000C187E68093A9002D
:1008F000A3EAB0E0EEE7FEE06BD209F025C0A6EA7D
:10090000B0E0E2E8FEE064D209F001C0C09AA6EAD5
:10091000B0E0E2E0FEE05CD209F001C0C098A0E7E0
:10092000B0E0E4E8FEE0C1D1A8E3B0E08C9180FB48
:10093000A0E7B0E060D1CBD18D9388278C93A0E75E
:10094000B0E083D188D1D1C0E0E9FEE041D209F026
:1009500025C0A6EAB0E0E2E8FEE03AD209F001C024
:10096000C19AA6EAB0E0E2E0FEE032D209F001C0AE
:10097000C198A0E7B0E0E4E9FEE097D1A8E3B0E0D9
:100980008C9181FBA0E7B0E036D1A1D18D9388276F
:100990008C93A0E7B0E059D15ED1A7C0E0EAFEE0B9
:1009A00017D209F025C0A6EAB0E0E2E8FEE010D2D6
:1009B00009F001C0C29AA6EAB0E0E2E0FEE008D287
:1009C00009F001C0C298A0E7B0E0E4EAFEE06DD112
:1009D000A8E3B0E08C9182FBA0E7B0E00CD177D126
:1009E0008D9388278C93A0E7B0E02FD134D17DC0C0
:1009F000E0EBFEE0EDD109F025C0A6EAB0E0E2E8C8
:100A0000FEE0E6D109F001C0C39AA6EAB0E0E2E058
:100A1000FEE0DED109F001C0C398A0E7B0E0E4EB4E
:100A2000FEE043D1A8E3B0E08C9183FBA0E7B0E007
:100A3000E2D04DD18D9388278C93A0E7B0E005D10B
:100A40000AD153C0E0ECFEE0C3D109F025C0A6EA0C
:100A5000B0E0E2E8FEE0BCD109F001C0C49AA6EA29
:100A6000B0E0E2E0FEE0B4D109F001C0C498A0E734
:100A7000B0E0E4ECFEE019D1A8E3B0E08C9184FB97
:100A8000A0E7B0E0B8D023D18D9388278C93A0E75E
:100A9000B0E0DBD0E0D029C0E0EDFEE099D109F074
:100AA00024C0A6EAB0E0E2E8FEE092D109F001C07D
:100AB000C59AA6EAB0E0E2E0FEE08AD109F001C002
:100AC000C598A0E7B0E0E4EDFEE0EFD0A8E3B0E029
:100AD0008C9185FBA0E7B0E08ED0F9D08D9388276C
:100AE0008C93A0E7B0E0B1D0B6D0A1EAB0E0E0EEE0
:100AF000FEE06ED109F071C0A3EAB0E0EEE7FEE0DF
:100B000067D109F009C000918000003009F003C0EE
:100B100081E08093800061C0E0E9FEE059D109F0F6
:100B200009C000918100003009F003C081E080938A
:100B3000810053C0E0EAFEE04BD109F009C000910A
:100B40008200003009F003C081E08093820045C03C
:100B5000E0EBFEE03DD109F009C0009183000030D8
:100B600009F003C081E08093830037C0E0ECFEE031
:100B70002FD109F009C000918400003009F003C0B2
:100B800081E08093840029C0E0EDFEE021D109F0EE
:100B900009C000918500003009F003C081E0809316
:100BA00085001BC0E2EEFEE013D109F009C0009100
:100BB0008600003009F003C082E0809386000DC0FB
:100BC000E6EEFEE005D109F008C000918700003094
:100BD00009F003C082E08093870072CAF894FFCFC7
:100BE0008C9181508C930895ED91FC91E150F040EF
:100BF000FC93EE9308958F938D918823E9F71197D5
:100C00008F910895A8E0B4E01AD08D3039F0EE232A
:100C1000D9F38D93EA9563FE21D0F6CF63FC04C02F
:100C20008DE01CD08AE01AD088278C93089581E04B
:100C30005F9B8827089588275F9B089500C05F9B6E
:100C4000FECF8CB10895A8E0B4E08D91882311F017
:100C500005D0FBCF08958DE001D08AE05D9BFECFEB
:100C60008CB908953197F1F70895689462F8089562
:100C7000E89462F80895EF93FF93EE27E82BE92BB1
:100C800031F0E0EDF7E03197F1F70197D1F7FF91FF
:100C9000EF91089501911191219130810895992743
:100CA0005A924A92480E591E08950DD00D92002076
:100CB000E1F70895369A3699FECF369A3699FECFE7
:100CC00084B195B10895C89531960020089580E3C8
:100CD0000EF483950895000F111F221F331F0895EE
:100CE00000951095209530950F5F1F4F2F4F3F4F68
:100CF0000895019110810BC0CDDF0BC001911081CF
:100D000017FF05C03FEF2FEF04C0008111272227F6
:100D1000332737FF03C0E4DF8DE28D93CF92DF925C
:100D2000EF92AA24BB24CC24DD24EE2440E2EAE0A6
:100D3000FF2755E093E38081890F87FD9F7083FD36
:100D4000907F891B81935A95A9F7C5DFAA1CBB1C0C
:100D5000CC1CDD1CEE1C4A9551F7E894EFE0FF2710
:100D600082910CD0EB30E0F71EF068948A2D0AD007
:100D700088278D93EF90DF90CF900895982F8295DC
:100D800001D0892F8F70805D26F0803309F408959B
:100D900068948D93089588278D93089581918D93FC
:100DA0008823E1F7089509919191992351F08A954B
:100DB000D9F73197002329F081918D930A958823E3
:100DC000C9F7E9CF8FEF83959D919923E1F70895B6
:100DD000689401C0E894AF93BF938D9116F0919100
:100DE00002C071DF902D891718F011F48823A9F73C
:100DF000BF91AF910895E89463F80895689463F8FB
:100E0000089530003030353A693A00003A303030D9
:100E100000003030353A693A30313A003030353AF6
:100E2000693A30323A003030353A693A30333A0074
:100E30003030353A693A30343A003030353A693A30
:100E400030353A003030353A693A30363A00303091
:100E5000353A693A30373A30303100003030353A7F
:100E6000693A30383A30303100003030353A733A30
:100E700030313A3030310000303035006F003031E1
:100E8000000031003030353A6F3A30313A303000BE
:100E9000303200003030353A6F3A30323A3030007C
:100EA000303300003030353A6F3A30333A3030006A
:100EB000303400003030353A6F3A30343A30300058
:100EC000303500003030353A6F3A30353A30300046
:100ED000303600003030353A6F3A30363A30300034
:0A0EE00069003037000030380000D0
:00000001FF
