:1000000012C0189518951895189518951895189563
:100010001895189518951895189518951895189578
:100020001895189518958FE58DBFC8E3E0E24E2E20
:1000300084E08EBFD4E0F4E05F2EA89584B7082E4C
:10004000877F84BF88E1992781BD91BDEEEFF3E002
:10005000A0E6B0E088278D933197E9F78CE089B965
:1000600080E080BD88E18AB966248FEF87BB8A9AD9
:100070008B9A8C9A8D988E988F9874B7777F74BF6F
:100080008BE181BD83E081BD86E886B980E487B9D4
:10009000379AE0E0F0E0A0E1B0E0B6D5003281E0D0
:1000A00008F480E08F93E0E0F0E0A0E1B0E0ACD5B0
:1000B0000D3781E010F009F080E09F9189238823BB
:1000C00009F406C0E0E0F0E0ACE8B0E09DD503C084
:1000D00080E280938C00ADE8B0E0ECE8F0E037D54A
:1000E00081B5886081BD70918400716070938400D7
:1000F00000918C00003209F005C07091840072609C
:10010000709384008AD4ACE6B0E08C9300916C00CC
:10011000013009F01CC085D4ADE6B0E08C9340916D
:100120008C0000916D00041781E009F080E08F934E
:1001300000916D000E3781E009F080E09F91892BDE
:10014000882309F404C08BEC80937E002CC00091BE
:100150007E00003010F009F001C005C080917E00E3
:10016000815080937E0000917E00083C09F001C020
:10017000949A00917E00003009F001C0949800919B
:100180008400003009F002C0939A02C09398949AB8
:10019000A895EF93FF93E0E6F0E060D4FF91EF9134
:1001A000B1CFF894FFCF50D5AEE6B0E0E9E022D46D
:1001B00048D582E0EEE6F0E001E00A93AAE7B0E07D
:1001C000FDD484E0EEE6F0E001E00A93ACE7B0E0B5
:1001D000F5D486E0EEE6F0E004E00A93AFE7B0E0A5
:1001E000EDD4AFE7B0E0CBD4A8E7B0E00D931C931B
:1001F000AAE7B0E0EEE4FCE011D509F0DDC0ACE721
:10020000B0E0E0E5FCE00AD509F0D5C0AFE7B0E02A
:100210008C91803009F462C0A8E7B0E00D911C9188
:100220000F3F51E0150710F009F001C006C08FEF35
:1002300091E0A8E7B0E08D939C93A8E7B0E00C9123
:1002400000FB0EF002C0C09A01C0C098A8E7B0E061
:100250000C9101FB0EF002C0C19A01C0C198A8E741
:10026000B0E00C9102FB0EF002C0C29A01C0C2982D
:10027000A8E7B0E00C9103FB0EF002C0C39A01C0E6
:10028000C398A8E7B0E00C9104FB0EF002C0C49A3A
:1002900001C0C498A8E7B0E00C9105FB0EF002C0C5
:1002A000C59A01C0C598A8E7B0E00C9106FB0EF016
:1002B00002C0C69A01C0C698A8E7B0E00C9107FB3F
:1002C0000EF002C0C79A01C0C798A9E7B0E00C9130
:1002D00000FB0EF002C0929A01C0929880E090E07C
:1002E000A5E8B0E08D939C93C09B05C0A5E8B0E065
:1002F0007C9171607C93C19B05C0A5E8B0E07C91C6
:1003000072607C93C29B05C0A5E8B0E07C917460EC
:100310007C93C39B05C0A5E8B0E07C9178607C939A
:10032000C49B05C0A5E8B0E07C9170617C93C59B3F
:1003300005C0A5E8B0E07C9170627C93C69B05C0C7
:10034000A5E8B0E07C9170647C93C79B05C0A5E8EC
:10035000B0E07C9170687C93929B05C0A6E8B0E009
:100360007C9171607C93A7E8B0E0E5E8F0E0F1D320
:10037000E7E8F0E0A8E0B4E01CD4E8E0F4E0A7E8A7
:10038000B0E01127222704E033279ED3EDE8F0E008
:10039000A0E6B0E00ED4A0E6B0E023D3E2E5FCE0B6
:1003A0007BD3E7E8F0E0A0E6B0E01BD302D4A0E600
:1003B000B0E041D346D3A6CEAAE7B0E0E8E5FCE042
:1003C0002DD409F08EC1ACE7B0E0E0E5FCE026D426
:1003D00009F03DC080E090E0A5E8B0E08D939C93EB
:1003E000859905C0A5E8B0E07C9171607C93869901
:1003F00005C0A5E8B0E07C9172607C93A7E8B0E00E
:10040000E5E8F0E0A6D3E7E8F0E0A8E0B4E0D1D377
:10041000E8E0F4E0A7E8B0E01127222704E0332762
:1004200053D3EDE8F0E0A0E6B0E0C3D3A0E6B0E03F
:10043000D8D2EAE5FCE030D3E7E8F0E0A0E6B0E0AF
:10044000D0D2B7D3A0E6B0E0F6D2FBD249C1E0E605
:10045000FCE0E4D309F032C007B1007F006007B9C7
:1004600020D3A5E8B0E08D939C93A7E8B0E0E5E841
:10047000F0E06FD3E7E8F0E0A8E0B4E09AD3E8E07A
:10048000F4E0A7E8B0E01127222704E033271CD3CB
:10049000EDE8F0E0A0E6B0E08CD3A0E6B0E0A1D2B9
:1004A000E2E6FCE0F9D2E7E8F0E0A0E6B0E099D2BD
:1004B00080D3A0E6B0E0BFD2C4D212C1E8E6FCE02F
:1004C000ADD309F032C007B1007F016007B9E9D2AE
:1004D000A5E8B0E08D939C93A7E8B0E0E5E8F0E0F4
:1004E00038D3E7E8F0E0A8E0B4E063D3E8E0F4E074
:1004F000A7E8B0E01127222704E03327E5D2EDE892
:10050000F0E0A0E6B0E055D3A0E6B0E06AD2EAE6BB
:10051000FCE0C2D2E7E8F0E0A0E6B0E062D249D366
:10052000A0E6B0E088D28DD2DBC0E0E7FCE076D375
:1005300009F032C007B1007F026007B9B2D2A5E866
:10054000B0E08D939C93A7E8B0E0E5E8F0E001D33C
:10055000E7E8F0E0A8E0B4E02CD3E8E0F4E0A7E8B6
:10056000B0E01127222704E03327AED2EDE8F0E017
:10057000A0E6B0E01ED3A0E6B0E033D2E2E7FCE0B4
:100580008BD2E7E8F0E0A0E6B0E02BD212D3A0E6F1
:10059000B0E051D256D2A4C0E8E7FCE03FD309F066
:1005A00032C007B1007F036007B97BD2A5E8B0E095
:1005B0008D939C93A7E8B0E0E5E8F0E0CAD2E7E8C5
:1005C000F0E0A8E0B4E0F5D2E8E0F4E0A7E8B0E0BD
:1005D0001127222704E0332777D2EDE8F0E0A0E6E8
:1005E000B0E0E7D2A0E6B0E0FCD1EAE7FCE054D20C
:1005F000E7E8F0E0A0E6B0E0F4D1DBD2A0E6B0E0BE
:100600001AD21FD26DC0E0E8FCE008D309F032C076
:1006100007B1007F046007B944D2A5E8B0E08D932C
:100620009C93A7E8B0E0E5E8F0E093D2E7E8F0E0DB
:10063000A8E0B4E0BED2E8E0F4E0A7E8B0E011271B
:10064000222704E0332740D2EDE8F0E0A0E6B0E056
:10065000B0D2A0E6B0E0C5D1E2E8FCE01DD2E7E808
:10066000F0E0A0E6B0E0BDD1A4D2A0E6B0E0E3D1D6
:10067000E8D136C0E8E8FCE0D1D209F031C007B1DA
:10068000007F056007B90DD2A5E8B0E08D939C937B
:10069000A7E8B0E0E5E8F0E05CD2E7E8F0E0A8E049
:1006A000B4E087D2E8E0F4E0A7E8B0E01127222721
:1006B00004E0332709D2EDE8F0E0A0E6B0E079D21B
:1006C000A0E6B0E08ED1EAE8FCE0E6D1E7E8F0E0B1
:1006D000A0E6B0E086D16DD2A0E6B0E0ACD1B1D159
:1006E00011CDAAE7B0E0E0E9FCE098D209F0FCC047
:1006F000ACE7B0E0E0E5FCE091D209F062C0AFE722
:10070000B0E08C91803009F433C0A8E7B0E00D91DF
:100710001C91073050E0150710F009F001C006C029
:1007200087E090E0A8E7B0E08D939C93A8E7B0E065
:100730000C9100FB0EF005C0709184007E7F7093D9
:100740008400A8E7B0E00C9101FB0EF005C07091A9
:1007500084007D7F70938400A8E7B0E00C9102FBD9
:100760000EF006C0A4E8B0E08C9194E089278C9349
:10077000A7E8B0E0E4E8F0E0EAD1E7E8F0E0A8E0DC
:10078000B4E017D2E8E0F4E0A7E8B0E011272227B0
:1007900004E0332799D1EDE8F0E0A0E6B0E009D21B
:1007A000A0E6B0E01ED1E2E9FCE076D1E7E8F0E0B7
:1007B000A0E6B0E016D1FDD1A0E6B0E03CD141D139
:1007C00092C0E0E6FCE02AD209F010C0EDE8F0E0CB
:1007D000A0E6B0E0EED1A0E6B0E003D1E8E9FCE0AD
:1007E0005BD1A0E6B0E027D12CD17DC0E8E6FCE0EB
:1007F00015D209F010C0EDE8F0E0A0E6B0E0D9D1E4
:10080000A0E6B0E0EED0E2EAFCE046D1A0E6B0E03F
:1008100012D117D168C0E0E7FCE000D209F010C0A7
:10082000EDE8F0E0A0E6B0E0C4D1A0E6B0E0D9D0B9
:10083000ECEAFCE031D1A0E6B0E0FDD002D153C03B
:10084000E8E7FCE0EBD109F010C0EDE8F0E0A0E64D
:10085000B0E0AFD1A0E6B0E0C4D0E6EBFCE01CD144
:10086000A0E6B0E0E8D0EDD03EC0E0E8FCE0D6D1B4
:1008700009F010C0EDE8F0E0A0E6B0E09AD1A0E603
:10088000B0E0AFD0E0ECFCE007D1A0E6B0E0D3D020
:10089000D8D029C0E8E8FCE0C1D109F010C0EDE8EB
:1008A000F0E0A0E6B0E085D1A0E6B0E09AD0EAECB6
:1008B000FCE0F2D0A0E6B0E0BED0C3D014C0E4EDBE
:1008C000FCE0ACD109F00FC0EDE8F0E0A0E6B0E04C
:1008D00070D1A0E6B0E085D0E6EDFCE0DDD0A0E68A
:1008E000B0E0A9D0AED00ECCAAE7B0E0E0EEFCE0DC
:1008F00095D109F073C0ACE7B0E0E0E5FCE08ED143
:1009000009F013C0EDE8F0E0A0E6B0E052D1A0E6B7
:10091000B0E067D0E2EEFCE0BFD0A0E6B0E08BD064
:1009200090D0E1E0F0E094D058C0E0E6FCE076D171
:1009300009F053C0A8E7B0E00D911C91003250E0DF
:10094000150781E008F480E08F93A8E7B0E00D91EF
:100950001C910D3750E0150781E010F009F080E0A0
:100960009F918923882309F40BC0E0E0F0E0A8E719
:10097000B0E07BE738D1E0E0F0E0ACE8B0E044D1B3
:10098000EDE8F0E0A0E6B0E014D1A0E6B0E029D0B8
:10099000ECEEFCE081D0A0E6B0E023D0ECE8F0E0A3
:1009A000D6D0A0E6B0E047D04CD081E06FD0A8818F
:1009B000B981ECE8F0E0CBD0E881F981ADE8B0E0B6
:1009C0002FD10FB681E0481A80E0580A22960FBE58
:1009D00009F403C0E1E0F0E03BD094CB93CBF89472
:1009E000FFCF8F938D918823E9F711978F91089509
:1009F000A8E0B4E01AD08D3039F0EE23D9F38D930E
:100A0000EA9563FE21D0F6CF63FC04C08DE01CD0D4
:100A10008AE01AD088278C93089581E05F9B88270D
:100A2000089588275F9B089500C05F9BFECF8CB11F
:100A30000895A8E0B4E08D91882311F005D0FBCF94
:100A400008958DE001D08AE05D9BFECF8CB90895BA
:100A500088EE93E00CD03197D9F708953197F1F7EC
:100A60000895689462F80895E89462F80895EF9301
:100A7000FF93EE27E82BE92B31F0E0EDF7E031971B
:100A8000F1F70197D1F7FF91EF91089599275A92C5
:100A90004A92480E591E08950DD00D920020E1F79C
:100AA0000895369A3699FECF369A3699FECF84B19C
:100AB00095B10895C895319600200895813618F0B3
:100AC0008B3708F48F7D08952E2E3F2E9927819124
:100AD0008D3209F093958823D1F79A95E22DF32D65
:100AE000112361F0091718F011F0101B01C0191B38
:100AF00028F021F080E28D931A95E9F780818D32FC
:100B000019F48D93319604C0222311F08BE28D935A
:100B1000091738F031F0091B21F080E38D930A9515
:100B2000E9F781918D938823E1F7332351F0EA2F80
:100B3000FB2F319633958E9182933A95E1F78EE2B1
:100B40008C930895000F111F221F331F089541E059
:100B500003C042E001C044E0E40F8827F81F8291FF
:100B6000982F829505D0892F03D04A95C1F71EC0D2
:100B70008F708A3008F0895F805D8D93089500271B
:100B80001127222733278D91882379F0DBDFDADFE5
:100B9000D9DFD8DF93DF815408F4895F865F080FBF
:100BA0008827181F281F381FEECF089588278D9398
:100BB000089581918D938823E1F70895099191918A
:100BC000992351F08A95D9F73197002329F0819123
:100BD0008D930A958823C9F7E9CFE199FECFEEBB43
:100BE000FFBB3196089591E001C092E07B3751F44C
:100BF0007FB7F894F2DF8D918DBBE29AE19A9A95D6
:100C0000C9F77FBF7727089591E001C092E0E5DF43
:100C1000E09A8DB38D939A95D1F70895689401C0A9
:100C2000E894AF93BF938D9116F0919102C042DF8B
:100C3000902D891718F011F48823A9F7BF91AF916F
:100C40000895E89463F80895689463F808956F0030
:100C500030002C6F2C302C0069002C692C302C00BB
:100C600031002C692C312C0032002C692C322C00E4
:100C700033002C692C332C0034002C692C342C00CC
:100C800035002C692C352C0036002C692C362C00B4
:100C900073002C732C302C002C732C312C303036FC
:100CA00041002C732C322C30303634002C732C3312
:100CB0002C30304338002C732C342C303043380027
:100CC0002C732C352C30323039002C732C362C30D0
:100CD0003630410037002C732C372C303030300048
:100CE00075002C752C302C30303031002C752C31A7
:040CF0002C30300074
:00000001FF
